{
  "_format": "hh-sol-artifact-1",
  "contractName": "ComplaintLedger",
  "sourceName": "contracts/ComplaintLedger.sol",
  "abi": [
    {
      "inputs": [
        {
          "internalType": "uint256",
          "name": "",
          "type": "uint256"
        }
      ],
      "name": "records",
      "outputs": [
        {
          "internalType": "string",
          "name": "hash",
          "type": "string"
        },
        {
          "internalType": "uint256",
          "name": "timestamp",
          "type": "uint256"
        }
      ],
      "stateMutability": "view",
      "type": "function"
    },
    {
      "inputs": [
        {
          "internalType": "string",
          "name": "_hash",
          "type": "string"
        }
      ],
      "name": "storeHash",
      "outputs": [],
      "stateMutability": "nonpayable",
      "type": "function"
    }
  ],
  "bytecode": "0x608060405234801561001057600080fd5b50610781806100206000396000f3fe608060405234801561001057600080fd5b50600436106100365760003560e01c8063344610671461003b57806371dc61cb1461006c575b600080fd5b610055600480360381019061005091906101f3565b610088565b6040516100639291906102bf565b60405180910390f35b61008660048036038101906100819190610424565b610144565b005b6000818154811061009857600080fd5b90600052602060002090600202016000915090508060000180546100bb9061049c565b80601f01602080910402602001604051908101604052809291908181526020018280546100e79061049c565b80156101345780601f1061010957610100808354040283529160200191610134565b820191906000526020600020905b81548152906001019060200180831161011757829003601f168201915b5050505050908060010154905082565b6000604051806040016040528083815260200142815250908060018154018082558091505060019003906000526020600020906002020160009091909190915060008201518160000190816101999190610679565b5060208201518160010155505050565b6000604051905090565b600080fd5b600080fd5b6000819050919050565b6101d0816101bd565b81146101db57600080fd5b50565b6000813590506101ed816101c7565b92915050565b600060208284031215610209576102086101b3565b5b6000610217848285016101de565b91505092915050565b600081519050919050565b600082825260208201905092915050565b60005b8381101561025a57808201518184015260208101905061023f565b60008484015250505050565b6000601f19601f8301169050919050565b600061028282610220565b61028c818561022b565b935061029c81856020860161023c565b6102a581610266565b840191505092915050565b6102b9816101bd565b82525050565b600060408201905081810360008301526102d98185610277565b90506102e860208301846102b0565b9392505050565b600080fd5b600080fd5b7f4e487b7100000000000000000000000000000000000000000000000000000000600052604160045260246000fd5b61033182610266565b810181811067ffffffffffffffff821117156103505761034f6102f9565b5b80604052505050565b60006103636101a9565b905061036f8282610328565b919050565b600067ffffffffffffffff82111561038f5761038e6102f9565b5b61039882610266565b9050602081019050919050565b82818337600083830152505050565b60006103c76103c284610374565b610359565b9050828152602081018484840111156103e3576103e26102f4565b5b6103ee8482856103a5565b509392505050565b600082601f83011261040b5761040a6102ef565b5b813561041b8482602086016103b4565b91505092915050565b60006020828403121561043a576104396101b3565b5b600082013567ffffffffffffffff811115610458576104576101b8565b5b610464848285016103f6565b91505092915050565b7f4e487b7100000000000000000000000000000000000000000000000000000000600052602260045260246000fd5b600060028204905060018216806104b457607f821691505b6020821081036104c7576104c661046d565b5b50919050565b60008190508160005260206000209050919050565b60006020601f8301049050919050565b600082821b905092915050565b60006008830261052f7fffffffffffffffffffffffffffffffffffffffffffffffffffffffffffffffff826104f2565b61053986836104f2565b95508019841693508086168417925050509392505050565b6000819050919050565b600061057661057161056c846101bd565b610551565b6101bd565b9050919050565b6000819050919050565b6105908361055b565b6105a461059c8261057d565b8484546104ff565b825550505050565b600090565b6105b96105ac565b6105c4818484610587565b505050565b5b818110156105e8576105dd6000826105b1565b6001810190506105ca565b5050565b601f82111561062d576105fe816104cd565b610607846104e2565b81016020851015610616578190505b61062a610622856104e2565b8301826105c9565b50505b505050565b600082821c905092915050565b600061065060001984600802610632565b1980831691505092915050565b6000610669838361063f565b9150826002028217905092915050565b61068282610220565b67ffffffffffffffff81111561069b5761069a6102f9565b5b6106a5825461049c565b6106b08282856105ec565b600060209050601f8311600181146106e357600084156106d1578287015190505b6106db858261065d565b865550610743565b601f1984166106f1866104cd565b60005b82811015610719578489015182556001820191506020850194506020810190506106f4565b868310156107365784890151610732601f89168261063f565b8355505b6001600288020188555050505b50505050505056fea2646970667358221220b6ff0f1baef137cbb0fba64083222ce16ed42515c788949060d8058665427ed464736f6c63430008140033",
  "linkReferences": {},
  "deployedLinkReferences": {}
}